S0170000636861726765722D76322D636F64652E7372656394
S113000019C020C01FC01EC01DC01CC01BC01AC008
S113001019C018C017C016C015C014C013C012C030
S113002011C010C00FC00EC00DC00CC00BC00AC060
S113003009C008C011241FBECFEFCDBFDFE3DEBF70
S1130040F9D05DC1DDCFCF93DF93A0EAB0E08C910E
S113005082608C9311968C911197816011968C9388
S113006011978CE18A95F1F7E0E0F4E08689887FC6
S1130070868B86898460868B8689877F868BC0E899
S1130080D6E019828881816088838881806488832E
S113009080818C60808384818C60848380E182830E
S11300A08189887F8460818B8589887F8460858B42
S11300B08789887F8460878BE0E0F6E08081808395
S11300C086E0818382818F72806182838C918063D8
S11300D08C9311968C911197826011968C938281E6
S11300E0866082838281876082838681807E856048
S11300F08683808181608083E0E2F4E08081877F71
S11301008083808184608083E0E0F8E086EB92E085
S11301108087918780E48683868180688683DF91E7
S1130120CF910895882331F0E0E0F4E08481877F63
S113013084830895E0E0F4E08481886084830895F2
S1130140882331F0E0E0F4E084818B7F8483089598
S1130150E0E0F4E08481846084830895E0E0F8E0E2
S1130160948195FFFDCF809302080895E0E0F8E0C4
S113017084818823ECF78091000808951F93CF931E
S1130180DF93CDB7DEB72797CDBFDEBF4AE0BE0110
S11301906F5F7F4F8AD08981882361F010E0DEDFB2
S11301A01F5FE1E0F0E0EC0FFD1FE10FF11D808126
S11301B08111F5CF8AE0D2DF2796CDBFDEBFDF9174
S11301C0CF911F910895809381060895E0E0F6E0B1
S11301D09681907E9160968391E09087938590FFBD
S11301E0FDCFE0E0F6E02089318990859E7F9087FD
S11301F0A90102C0569547958A95E2F7CA01089568
S1130200E0E0F6E09681907E9560968391E0908799
S1130210938590FFFDCFE0E0F6E020893189908559
S11302209E7F9087A90102C0569547958A95E2F76B
S1130230CA01089508DF9ADFC82F882399F1893409
S113024069F028F48734A9F0883459F024C0823541
S1130250C9F0843581F38C34F1F407C087DFB3DF50
S1130260EACF80E0CDDF8ADFE6CF80E0AFDF86DF54
S1130270E2CF7CDF882319F081E062DFDCCF80E00D
S11302805FDFD9CF73DF882319F081E04BDFD3CF51
S113029080E048DFD0CF85E461DF8C2F5FDF80E032
S11302A092DFC9CF80E08FDFC6CFBB27FB01552784
S11302B0AA27880F991FAA1FA41710F0A41B8395BF
S11302C05051B9F7A05DAA3308F0A95DA193009736
S11302D079F7B111B1931192CB010C946F01DC0148
S11302E0FC01672F71917723E1F7329704C07C9169
S11302F06D9370836291AE17BF07C8F30895F894A5
S1050300FFCF29
S9030000FC
