S0170000636861726765722D76322D636F64652E7372656394
S113000019C020C01FC01EC01DC01CC01BC01AC008
S113001019C018C017C016C015C014C013C012C030
S113002011C010C00FC00EC00DC00CC00BC00AC060
S113003009C008C011241FBECFEFCDBFDFE3DEBF70
S1130040AAD0BAC0DDCFCF93DF93E0E0F4E08081A3
S11300508C60808384818C60848380E18283848942
S11300608068848B8189887F8460818B8589887F7F
S11300708460858B8789887F8460878BA0E0B6E065
S11300808C918C9311968C911197887F11968C93F7
S1130090119712968C9112978F72806112968C939D
S11300A01297C0EAD0E08881806388838881826067
S11300B0888312968C911297806412968C9312976F
S11300C012968C911297887F12968C93129716969B
S11300D08C911697807E856016968C9316978C91DA
S11300E081608C9388818260888388818160888321
S11300F08689887F868B86898460868B8689877FBC
S1130100868BE0E8F6E08FEF8183808181608083D5
S1130110808180648083DF91CF910895E0E0F6E0F0
S11301208681807E8560868381E08087838580FFE9
S1130130FDCFE0E0F6E08681807E816086834089A1
S11301405189938590FFFDCFE0E0F6E02089318965
S113015090859E7F9087CA01821B930B0895882304
S113016031F0E0E0F4E08681886086830895E0E081
S1130170F4E08581886085830895882331F0E0E088
S1130180F4E08681846086830895E0E0F4E085816C
S113019084608583089557DF81E0E1DFBFDF8B59F9
S11301A092408E349140D0F780E0D9DF81E0E5DFE2
S10F01B0789480E090E00895F894FFCF6C
S9030000FC
