S0170000636861726765722D76322D636F64652E7372656394
S113000019C020C01FC01EC01DC01CC01BC01AC008
S113001019C018C017C016C015C014C013C012C030
S113002011C010C00FC00EC00DC00CC00BC00AC060
S113003009C008C011241FBECFEFCDBFDFE3DEBF70
S113004035D03AC0DDCFE0E0F4E080818C6080837D
S113005084818C60848380E1828384898068848B3A
S11300608189887F8460818B8589887F8460858B82
S11300708789887F8460878BE0E0F6E080818460F4
S113008080838181887F818382818F728061828372
S11300908281806482838281887F82838681807E5C
S11300A0856086838081816080830895CCDFE0E071
S10F00B0F4E08CE08783FECFF894FFCFCF
S9030000FC
