:1000000027C02EC02DC02CC02BC02AC029C028C09C
:1000100027C026C025C024C023C022C021C020C0C4
:100020001FC01EC01DC01CC01BC01AC019C018C0F4
:1000300017C016C034C12BC127C143C117C12BC182
:1000400040C13FC13EC13DC13CC132C13AC100C106
:1000500011241FBECFEFCDBFDFE3DEBFF8D065C1F7
:10006000CFCFCF93DF93A0EAB0E08C9182608C93E6
:1000700011968C911197816011968C9311978CE158
:100080008A95F1F7E0E0F4E08689887F868B86899F
:100090008460868B8689877F868BC0E8D6E019824C
:1000A00088818160888388818064888380818C6076
:1000B000808384818C60848380E182838189887FCE
:1000C0008460818B8589887F8460858B8789887F20
:1000D0008460878BE0E0F6E08081808384E0818328
:1000E00082818F72806182838C9180638C93119660
:1000F0008C911197826011968C93828186608283A5
:10010000828182838681807E856086838081816012
:100110008083E0E2F4E08081877F80838081846057
:100120008083E0E0F8E086EB92E08087918780E4CE
:100130008683868180688683DF91CF9108958823A6
:1001400031F0E0E0F4E08481877F84830895E0E08B
:10015000F4E08481886084830895882331F0E0E0AE
:10016000F4E084818B7F84830895E0E0F4E084816F
:10017000846084830895E0E0F8E0948195FFFDCFEA
:10018000809302080895E0E0F8E084818823ECF78A
:100190008091000808951F93CF93DF93CDB7DEB70A
:1001A0002797CDBFDEBF4AE0BE016F5F7F4F93D080
:1001B0008981882361F010E0DEDF1F5FE1E0F0E07D
:1001C000EC0FFD1FE10FF11D80818111F5CF8AE059
:1001D000D2DF2796CDBFDEBFDF91CF911F9108956B
:1001E000809381060895E0E0F6E09681907E91602C
:1001F000968391E09087938590FFFDCFE0E0F6E055
:100200002089318990859E7F9087A90102C05695EB
:1002100047958A95E2F7CA010895E0E0F6E09681F5
:10022000907E9560968391E09087938590FFFDCFB7
:10023000E0E0F6E02089318990859E7F9087A901D2
:1002400002C0569547958A95E2F7CA01089509DFDD
:100250009ADFC82F8823E1F190E0FC01E754F1090F
:10026000EE30F10570F5E65EFF4F09948CDF182F34
:1002700080E0D3DFEC0180E0B6DFC81BD90B812F13
:10028000AFDFCE0188DFE4CF7EDFAADFE1CF80E001
:10029000C4DF81DFDDCF80E0A6DF7DDFD9CF73DF74
:1002A000882319F081E059DFD3CF80E056DFD0CF2B
:1002B0006ADF882319F081E042DFCACF80E03FDFA8
:1002C000C7CF85E458DF8C2F56DF80E089DFC0CFB1
:1002D00080E086DFBDCFBB27FB015527AA27880F0B
:1002E000991FAA1FA41710F0A41B83955051B9F7AA
:1002F000A05DAA3308F0A95DA193009779F7B11129
:10030000B1931192CB010C948501DC01FC01672FA4
:1003100071917723E1F7329704C07C916D937083DC
:0E0320006291AE17BF07C8F30895F894FFCF9F
:00000001FF
