:1000000019C020C01FC01EC01DC01CC01BC01AC00C
:1000100019C018C017C016C015C014C013C012C034
:1000200011C010C00FC00EC00DC00CC00BC00AC064
:1000300009C008C011241FBECFEFCDBFDFE3DEBF74
:10004000E7D062C1DDCFCF93DF93A0EAB0E08C911F
:100050008C9311968C911197816011968C931197C6
:100060008CE18A95F1F7E0E0F4E08689887F868B61
:1000700086898460868B8689877F868BC0E8D6E0F8
:1000800019828881816088838881806488838081E7
:100090008C60808384818C60848380E18283818909
:1000A000887F8460818B8589887F8460858B878940
:1000B000887F8460878BE0E0F6E080818083118216
:1000C00082818F72806182838C9180638C93119680
:1000D0008C911197826011968C93828186608283C5
:1000E000828182838681807E856086838081816033
:1000F0008083E0E2F4E08081877F80838081846078
:100100008083E0E0F8E08CE695E08087918780E4EA
:100110008683DF91CF910895882321F08091040494
:10012000877F03C08091040488608093040408954D
:10013000882321F0809104048B7F03C08091040404
:1001400084608093040408959091040895FFFCCF87
:100150008093020808951F93CF93DF93CDB7DEB746
:100160002797CDBFDEBF4AE0BE016F5F7F4F97D0BC
:1001700010E0E1E0F0E0EC0FFD1FE10FF11D8081E8
:10018000882319F0E1DF1F5FF4CF8DE0DDDF8AE027
:10019000DBDF2796CDBFDEBFDF91CF911F910895A2
:1001A00080910606807E85608093060681E08093BC
:1001B000080680910B0680FFFCCF809108068E7F99
:1001C0008093080640911006509111069091060602
:1001D000907E91609093060681E08093080680915E
:1001E0000B0680FFFCCF20911006309111069091F4
:1001F00008069E7F90930806CA01821B930B089500
:1002000080938106089580910804809580710895F7
:100210001ADFF9DF8823E9F3C3DFEC019CDFCB5C55
:10022000D240CD31D140A8F78AE29CE22AE0815049
:1002300090402040E1F7000081E07ADF83E1E0DFD9
:10024000AFDF883E23E0920790F48A3C22E09207D9
:1002500028F481E061DF80E0D3DF09C07CDF85E145
:1002600096E125E0815090402040E1F7E9CF80E021
:10027000C7DFC9DF8111CDCF81E05ADF85ED98E07E
:1002800022E0815090402040E1F780E051DF85ED91
:1002900098E022E0815090402040E1F7EACFBB2770
:1002A0004A3031F4992322F4BDE2909581959F4F15
:1002B0000C945B01BB27FB015527AA27880F991FC8
:1002C000AA1FA41710F0A41B83955051B9F7A05D85
:1002D000AA3308F0A95DA193009779F7B111B19302
:1002E0001192CB010C947401DC01FC01672F719118
:1002F0007723E1F7329704C07C916D93708362910C
:0C030000AE17BF07C8F30895F894FFCFB4
:00000001FF
