S01700004763634170706C69636174696F6E312E737265635B
S113000019C020C01FC01EC01DC01CC01BC01AC008
S113001019C018C017C016C015C014C013C012C030
S113002011C010C00FC00EC00DC00CC00BC00AC060
S113003009C008C011241FBECFEFCDBFDFE3DEBF70
S1130040CDD02CC7DDCFCF93DF93A0EAB0E08C9165
S11300508C9311968C911197816011968C931197C2
S11300608CE18A95F1F7E0E0F4E08689887F868B5D
S113007086898460868B8689877F868BC0E8D6E0F4
S113008019828881816088838881806488838081E3
S11300908C60808384818C60848380E18283818905
S11300A0887F8460818B8589887F8460858B87893C
S11300B0887F8460878BE0E0F6E080818083118212
S11300C082818F72806182838C9180638C9311967C
S11300D08C911197826011968C93828186608283C1
S11300E0828182838681807E85608683808181602F
S11300F08083E0E2F4E08081877F80838081846074
S11301008083E0E0F8E08CE695E08087918780E4E6
S11301108683DF91CF910895E0E0F8E0948195FF24
S1130120FDCF809302080895809108048095807122
S113013008950F931F93CF93FC018081882359F076
S11301408F01C0E090E0E8DFCF5FF801EC0FF11D14
S113015080818111F7CFCF911F910F910895E0E035
S1130160F6E08681807E8160868381E08087838556
S113017080FFFDCFE0E0F6E06089718980858E7FA5
S1130180808780E090E0AFD22AE939E949E85BE36F
S113019038D30895E0E0F6E08681807E856086832A
S11301A081E08087838580FFFDCFE0E0F6E08085F5
S11301B08E7F80876089718980E090E094D22AE9FB
S11301C039E949E85BE31DD35FD280E090E08BD24C
S11301D02AE939E949E85BE314D30895CF93DF931F
S11301E0CDB7DEB7C454D109CDBFDEBF2CDF00E0EC
S11301F016E0CE0101961C010F2EF0EBAF2EFEE8A7
S1130200BF2EF02D91DF8823E9F3F801118282815A
S1130210866082838281828380E1E0EAFEE8D10104
S113022001900D928A95E1F7C10183DF98DF25964D
S11302306CAF7DAF8EAF9FAF2597ACDFE62ED72E88
S1130240C82E792E8CDF462E572E682EF92E2AE0E2
S113025037ED43EA5DE325966CAD7DAD8EAD9FAD84
S11302602597A0D19F938F937F936F937F92CF9283
S1130270DF92EF92FF926F925F924F92BF92AF9292
S11302801F92F0E4FF933F922F9228D3C10151DFD4
S113029026E0F801218382818660828382818283C1
S11302A081E1E6ECFEE8D10101900D928A95E1F737
S11302B0C1013FDF54DF2B013C016CDF25966CAF9D
S11302C07DAF8EAF9FAF25974ADF6B017C012AE09B
S11302D037ED43EA5DE3C301B20164D120E030E0CD
S11302E040E85CE38ED29F938F937F936F9320E0DB
S11302F030E040E85CE325966CAD7DAD8EAD9FADFE
S113030025977FD29F938F937F936F9320E030E064
S113031040E85CE3C701B60174D29F938F937F9347
S11303206F93BF92AF921F9280E48F933F922F926C
S1130330D5D2CDBFDEBFC101FCDEF80111828281BE
S11303408F7B82838281828380E1E7EDFEE8D101A5
S113035001900D928A95E1F7C101EBDE00DF25964D
S11303606CAF7DAF8EAF9FAF259714DFE62ED72EEF
S1130370C82E792EF4DE462E572E682EF92E2AE04A
S113038037ED43EA5DE325966CAD7DAD8EAD9FAD53
S1130390259708D19F938F937F936F937F92CF92EA
S11303A0DF92EF92FF926F925F924F92BF92AF9261
S11303B01F92F0E4FF933F922F9290D2C101B9DED5
S11303C0F8011182828186608283828187608283C0
S11303D082E1E7EEFEE8D10101900D928A95E1F702
S11303E0C101A7DEBCDE25966CAF7DAF8EAF9FAF9B
S11303F02597D0DEE62ED72EC82E792EB0DE462ED7
S1130400572E682EF92E2AE037ED43EA5DE3259650
S11304106CAD7DAD8EAD9FAD2597C4D09F938F936A
S11304207F936F937F92CF92DF92EF92FF926F92BE
S11304305F924F92BF92AF921F92F0E4FF933F926C
S11304402F924CD2CDBFDEBFC10173DEF801118201
S113045082818F7B828382818760828382E1E9EF5C
S1130460FEE8D10101900D928A95E1F7C10161DEA8
S113047076DE25966CAF7DAF8EAF9FAF25978ADE73
S1130480E62ED72EC82E792E6ADE462E572E682EDB
S1130490F92E2AE037ED43EA5DE325966CAD7DAD98
S11304A08EAD9FAD25977ED09F938F937F936F934F
S11304B07F92CF92DF92EF92FF926F925F924F9270
S11304C0BF92AF921F92F0E4FF933F922F9206D215
S11304D0C1012FDEF801118282818F7B82838281A8
S11304E08760828382E1E9EFFEE8D10101900D92F9
S11304F08A95E1F7C1011DDE32DE2B013C014ADEA3
S113050025966CAF7DAF8EAF9FAF259728DE6B012C
S11305107C0120E030E040E85CE3C301B20171D12A
S11305202AE037ED43EA5DE33DD09F938F937F93B9
S11305306F9320E030E040E85CE325966CAD7DAD40
S11305408EAD9FAD25975DD19F938F937F936F93CE
S113055020E030E040E85CE3C701B60152D19F934C
S11305608F937F936F93BF92AF921F92F0E4FF93A8
S11305703F922F92B3D1CDBFDEBFC101DADD85E05A
S1130580EBE0FFE8D10101900D928A95E1F7C101FA
S1130590D0DD9AE6E4E0F1E09150E040F040E1F78C
S11305A000C030CE0E94E6020C94C7030E94C00330
S11305B058F00E94B90340F029F45F3F29F00C94ED
S11305C0B00351110C94FB030C94B6030E94D8039E
S11305D068F39923B1F3552391F3951B550BBB276E
S11305E0AA2762177307840738F09F5F5F4F220FB3
S11305F0331F441FAA1FA9F335D00E2E3AF0E0E8AA
S113060032D091505040E695001CCAF72BD0FE2FF3
S113061029D0660F771F881FBB1F26173707480787
S1130620AB07B0E809F0BB0B802DBF01FF2793583F
S11306305F4F3AF09E3F510578F00C94B0030C9450
S1130640FB035F3FE4F3983ED4F386957795679573
S1130650B795F7959F5FC9F7880F911D9695879574
S113066097F90895E1E0660F771F881FBB1F621793
S113067073078407BA0720F0621B730B840BBA0B51
S1130680EE1F88F7E09508950E94E00388F09F57D5
S113069098F0B92F9927B751B0F0E1F0660F771FA2
S11306A0881F991F1AF0BA95C9F714C0B13091F098
S11306B00E94FA03B1E008950C94FA03672F782F8F
S11306C08827B85F39F0B93FCCF38695779567955D
S11306D0B395D9F73EF490958095709561957F4FC9
S11306E08F4F9F4F0895E89409C097FB3EF490956F
S11306F08095709561957F4F8F4F9F4F9923A9F0F7
S1130700F92F96E9BB279395F69587957795679585
S1130710B795F111F8CFFAF4BB0F11F460FF1BC0C9
S11307206F5F7F4F8F4F9F4F16C0882311F096E95C
S113073011C0772321F09EE8872F762F05C066230A
S113074071F096E8862F70E060E02AF09A95660FC3
S1130750771F881FDAF7880F9695879597F908957C
S113076097F99F6780E870E060E008959FEF80EC60
S1130770089500240A941616170618060906089503
S113078000240A9412161306140605060895092E69
S11307900394000C11F4882352F0BB0F40F4BF2BD8
S11307A011F460FF04C06F5F7F4F8F4F9F4F089518
S11307B057FD9058440F551F59F05F3F71F047950E
S11307C0880F97FB991F61F09F3F79F087950895F3
S11307D0121613061406551FF2CF4695F1DF08C012
S11307E0161617061806991FF1CF8695710561052F
S11307F008940895E894BB2766277727CB0197F9D7
S113080008950E9414040C94C7030E94B90338F09D
S11308100E94C00320F0952311F00C94B0030C94B3
S1130820B60311240C94FB030E94D80370F3959F24
S1130830C1F3950F50E0551F629FF001729FBB27D3
S1130840F00DB11D639FAA27F00DB11DAA1F649F6F
S11308506627B00DA11D661F829F2227B00DA11D22
S1130860621F739FB00DA11D621F839FA00D611DA8
S1130870221F749F3327A00D611D231F849F600DC9
S1130880211D822F762F6A2F11249F5750409AF0F2
S1130890F1F088234AF0EE0FFF1FBB1F661F771F7E
S11308A0881F91505040A9F79E3F510580F00C9449
S11308B0B0030C94FB035F3FE4F3983ED4F38695B6
S11308C077956795B795F795E7959F5FC1F7FE2BE9
S11308D0880F911D9695879597F90895AEE0B0E03D
S11308E0E3E7F4E0B8C20D891E898F89988D26E06C
S11308F02C8309831A8397FF02C080E090E8019754
S11309008D839E83AE01455E5F4F698D7A8DCE01E6
S1130910019611D04D815E8157FD0AC02F81388523
S1130920421753070CF49A01F801E20FF31F1082E7
S11309302E96E4E0A9C2ABE0B0E0E0EAF4E07DC2C8
S11309406C017B018A01FC0116821782838181FF7D
S1130950BFC1CE0101963C01F6019381F70193FDDD
S1130960859193FF81917F01882309F4ADC185327C
S113097039F493FD859193FF81917F01853221F4B0
S1130980B60190E0C0D1E8CF912C212C312CFFE1AD
S1130990F315D8F08B3279F038F4803279F0833261
S11309A0A1F4232D20611DC08D3261F0803369F4E0
S11309B0232D216016C0832D8260382EE32DE46040
S11309C03E2E2AC0F32DF8601DC037FC2DC020ED4B
S11309D0280F2A3040F08E32B9F436FC75C1232D2D
S11309E02064322E19C036FE06C08AE0989E200D7F
S11309F01124922E11C0EAE02E9E200D1124222EE5
S1130A00F32DF0623F2E08C08C3621F4832D8068CC
S1130A10382E02C0883641F4F70193FD859193FF87
S1130A2081917F018111B3CF982F9F7D955493308D
S1130A3028F40C5F1F4F9FE399830DC0833631F078
S1130A40833771F0833509F055C020C0F8018081E7
S1130A5089830E5F1F4F88248394912C530112C005
S1130A602801F2E04F0E511CF801A080B18036FE3F
S1130A7003C0692D70E002C06FEF7FEFC50138D16C
S1130A804C018201F32DFF773F2E15C0280122E08F
S1130A90420E511CF801A080B18036FE03C0692DBE
S1130AA070E002C06FEF7FEFC50117D14C01F32D49
S1130AB0F0683F2E820133FC19C0822D90E0881625
S1130AC09906A0F4B60180E290E01DD12A94F5CFF6
S1130AD0F50137FC859137FE81915F01B60190E005
S1130AE012D121102A9421E0821A910881149104D0
S1130AF079F7E1C0843611F0893639F5F80137FE0B
S1130B0007C060817181828193810C5F1F4F08C08F
S1130B1060817181072E000C880B990B0E5F1F4FAB
S1130B20F32DFF763F2E97FF09C090958095709521
S1130B3061957F4F8F4F9F4FF0683F2E2AE030E042
S1130B40A3011DD1882E861844C0853731F4232D86
S1130B502F7EB22E2AE030E025C0932D997FB92E46
S1130B608F36C1F018F4883579F0AEC0803719F0AB
S1130B70883721F0A9C0E92FE061BE2EB4FE0DC074
S1130B80FB2DF460BF2E09C034FE0AC0292F266055
S1130B90B22E06C028E030E005C020E130E002C0FB
S1130BA020E132E0F801B7FE07C0608171818281E3
S1130BB093810C5F1F4F06C06081718180E090E0DB
S1130BC00E5F1F4FA301DBD0882E8618FB2DFF7705
S1130BD03F2E36FE0DC0232D2E7FA22E891458F4ED
S1130BE034FE0BC032FC09C0832D8E7EA82E05C0B6
S1130BF0B82CA32C03C0B82C01C0B92CA4FE0FC080
S1130C00FE01E80DF11D8081803321F49A2D997E37
S1130C10A92E09C0A2FE06C0B394B39404C08A2DC1
S1130C20867809F0B394A3FC10C0A0FE06C0B214E9
S1130C3080F4280C922C9B180DC0B21458F4B60101
S1130C4080E290E060D0B394F8CFB21418F42B187B
S1130C5002C0982C212CA4FE0FC0B60180E390E0C2
S1130C6052D0A2FE16C0A1FC03C088E790E002C0E7
S1130C7088E590E0B6010CC08A2D867851F0A1FE7B
S1130C8002C08BE201C080E2A7FC8DE2B60190E0D5
S1130C903AD0891430F4B60180E390E034D09A94C9
S1130CA0F8CF8A94F301E80DF11D8081B60190E03C
S1130CB02AD08110F6CF222009F44ECEB60180E26C
S1130CC090E021D02A94F7CFF6018681978102C063
S1130CD08FEF9FEF2B96E2E1C9C0FC0105906150B4
S1130CE070400110D8F7809590958E0F9F1F08953E
S1130CF0FC016150704001900110D8F780959095E7
S1130D008E0F9F1F08950F931F93CF93DF93FB01C3
S1130D10238121FD03C08FEF9FEF2CC022FF16C05B
S1130D2046815781248135814217530744F4A081B9
S1130D30B1819D012F5F3F4F208331838C932681A6
S1130D4037812F5F3F4F2683378314C08B01EC011B
S1130D50FB010084F185E02D0995892BE1F6D8018A
S1130D6016968D919C911797019616968D939C9348
S1130D701797CE01DF91CF911F910F910895FA013A
S1130D80AA27283051F1203181F1E8946F936E7FC6
S1130D906E5F7F4F8F4F9F4FAF4FB1E03ED0B4E0B7
S1130DA03CD0670F781F891F9A1FA11D680F791FF8
S1130DB08A1F911DA11D6A0F711D811D911DA11D09
S1130DC020D009F468943F912AE0269F1124301919
S1130DD0305D3193DEF6CF010895462F4770405DB4
S1130DE04193B3E00FD0C9F7F6CF462F4F70405D63
S1130DF04A3318F0495D31FD4052419302D0A9F7BE
S1130E00EACFB4E0A6959795879577956795BA95B7
S1130E10C9F700976105710508959B01AC010A2E7D
S1130E2006945795479537952795BA95C9F7620F54
S1130E30731F841F951FA01D08952F923F924F92F8
S1130E405F926F927F928F929F92AF92BF92CF9256
S1130E50DF92EF92FF920F931F93CF93DF93CDB75F
S1130E60DEB7CA1BDB0BCDBFDEBF09942A883988E5
S1130E7048885F846E847D848C849B84AA84B9842E
S1130E80C884DF80EE80FD800C811B81AA81B9813A
S1130E90CE0FD11DCDBFDEBFED010895F894FFCF75
S1130EA0533A312009433A522009503A320A0D008C
S1130EB04C3A2025660920483A2025660920493AFB
S1130EC02025660A0D00533A36342009433A52204D
S1130ED009503A320A0D00533A312009433A462068
S1130EE009503A320A0D00533A312009433A52204C
S1130EF009503A3235360A0D00533A312009433A43
S1130F00462009503A3235360A0D000A0D0A0D0002
S9030000FC
