S01700004763634170706C69636174696F6E312E737265635B
S113000019C020C01FC01EC01DC01CC01BC01AC008
S113001019C018C017C016C015C014C013C012C030
S113002011C010C00FC00EC00DC00CC00BC00AC060
S113003009C008C011241FBECFEFCDBFDFE3DEBF70
S1130040F9D056C1DDCFCF93DF93A0EAB0E08C9115
S113005082608C9311968C911197816011968C9388
S113006011978CE18A95F1F7E0E0F4E08689887FC6
S1130070868B86898460868B8689877F868BC0E899
S1130080D6E019828881816088838881806488832E
S113009080818C60808384818C60848380E182830E
S11300A08189887F8460818B8589887F8460858B42
S11300B08789887F8460878BE0E0F6E08081808395
S11300C086E0818382818F72806182838C918063D8
S11300D08C9311968C911197826011968C938281E6
S11300E0866082838281876082838681807E856048
S11300F08683808181608083E0E2F4E08081877F71
S11301008083808184608083E0E0F8E086EB92E085
S11301108087918780E48683868180688683DF91E7
S1130120CF910895882321F080910404877F03C030
S1130130809104048860809304040895882321F046
S1130140809104048B7F03C08091040484608093B5
S1130150040408959091040895FFFCCF809302084D
S113016008958091040887FFFCCF809100080895CA
S11301701F93CF93DF93CDB7DEB72797CDBFDEBFF5
S11301804AE0BE016F5F7F4F89D010E0E1E0F0E00C
S1130190EC0FFD1FE10FF11D8081882319F0DADFD8
S11301A01F5FF4CF8AE0D6DF2796CDBFDEBFDF9195
S11301B0CF911F910895809381060895909106062A
S11301C0907E91609093060691E09093080690913A
S11301D00B0690FFFCCF20911006309111069091F0
S11301E008069E7F90930806A90102C0569547957C
S11301F08A95E2F7CA01089590910606907E95606B
S11302009093060691E09093080690910B0690FF58
S1130210FCCF2091100630911106909108069E7F24
S113022090930806A90102C0569547958A95E2F76E
S1130230CA01089508DF95DFC82F882361F1893446
S113024089F038F4873491F0883401F580E0D4DF04
S11302500BC0823599F0843571F38C34B9F480E0A5
S1130260ADDF02C07EDF18C083DFE5CF7ADF8823ED
S113027011F081E001C080E061DFDDCF72DF88230F
S113028011F081E001C080E04DDFD5CF85E462DF6D
S11302908C2F60DFD0CF80E08EDFCDCFBB27FB017A
S11302A05527AA27880F991FAA1FA41710F0A41B6B
S11302B083955051B9F7A05DAA3308F0A95DA193C5
S11302C0009779F7B111B1931192CB010C946801A5
S11302D0DC01FC01672F71917723E1F7329704C0A9
S11302E07C916D9370836291AE17BF07C8F3089534
S10702F0F894FFCFAC
S9030000FC
